{
  "_format": "hh-sol-artifact-1",
  "contractName": "KYC",
  "sourceName": "contracts/Kyc.sol",
  "abi": [
    {
      "inputs": [
        {
          "internalType": "address",
          "name": "getAddress",
          "type": "address"
        }
      ],
      "name": "getKYCData",
      "outputs": [
        {
          "internalType": "address",
          "name": "_userAddress",
          "type": "address"
        },
        {
          "internalType": "bool",
          "name": "_isVerified",
          "type": "bool"
        },
        {
          "internalType": "string",
          "name": "_FullName",
          "type": "string"
        },
        {
          "internalType": "string",
          "name": "_Email",
          "type": "string"
        },
        {
          "internalType": "uint256",
          "name": "_Phone",
          "type": "uint256"
        },
        {
          "internalType": "uint256",
          "name": "_Aadhar",
          "type": "uint256"
        },
        {
          "internalType": "string",
          "name": "_Location",
          "type": "string"
        }
      ],
      "stateMutability": "view",
      "type": "function"
    },
    {
      "inputs": [
        {
          "internalType": "address",
          "name": "userAds",
          "type": "address"
        },
        {
          "internalType": "string",
          "name": "fullName",
          "type": "string"
        },
        {
          "internalType": "string",
          "name": "email",
          "type": "string"
        },
        {
          "internalType": "uint256",
          "name": "phone",
          "type": "uint256"
        },
        {
          "internalType": "uint256",
          "name": "aadhar",
          "type": "uint256"
        },
        {
          "internalType": "string",
          "name": "location",
          "type": "string"
        }
      ],
      "name": "setKYCData",
      "outputs": [],
      "stateMutability": "nonpayable",
      "type": "function"
    },
    {
      "inputs": [
        {
          "internalType": "address",
          "name": "verifyAddress",
          "type": "address"
        }
      ],
      "name": "verifyKYC",
      "outputs": [
        {
          "internalType": "bool",
          "name": "",
          "type": "bool"
        }
      ],
      "stateMutability": "view",
      "type": "function"
    }
  ],
  "bytecode": "0x608060405234801561001057600080fd5b50610d21806100206000396000f3fe608060405234801561001057600080fd5b50600436106100415760003560e01c806338d160111461004657806359e4a41814610076578063ab47a2f914610092575b600080fd5b610060600480360381019061005b91906105c0565b6100c8565b60405161006d9190610608565b60405180910390f35b610090600480360381019061008b919061079f565b610120565b005b6100ac60048036038101906100a791906105c0565b6102f6565b6040516100bf979695949392919061091d565b60405180910390f35b60008060008373ffffffffffffffffffffffffffffffffffffffff1673ffffffffffffffffffffffffffffffffffffffff16815260200190815260200160002060000160149054906101000a900460ff169050919050565b60008060008873ffffffffffffffffffffffffffffffffffffffff1673ffffffffffffffffffffffffffffffffffffffff16815260200190815260200160002060040154146101a4576040517f08c379a000000000000000000000000000000000000000000000000000000000815260040161019b906109ed565b60405180910390fd5b6040518060e001604052808773ffffffffffffffffffffffffffffffffffffffff168152602001600115158152602001868152602001858152602001848152602001838152602001828152506000808873ffffffffffffffffffffffffffffffffffffffff1673ffffffffffffffffffffffffffffffffffffffff16815260200190815260200160002060008201518160000160006101000a81548173ffffffffffffffffffffffffffffffffffffffff021916908373ffffffffffffffffffffffffffffffffffffffff16021790555060208201518160000160146101000a81548160ff02191690831515021790555060408201518160010190816102aa9190610c19565b5060608201518160020190816102c09190610c19565b506080820151816003015560a0820151816004015560c08201518160050190816102ea9190610c19565b50905050505050505050565b600080606080600080606060008060008a73ffffffffffffffffffffffffffffffffffffffff1673ffffffffffffffffffffffffffffffffffffffff16815260200190815260200160002090508060000160009054906101000a900473ffffffffffffffffffffffffffffffffffffffff168160000160149054906101000a900460ff168260010183600201846003015485600401548660050184805461039c90610a3c565b80601f01602080910402602001604051908101604052809291908181526020018280546103c890610a3c565b80156104155780601f106103ea57610100808354040283529160200191610415565b820191906000526020600020905b8154815290600101906020018083116103f857829003601f168201915b5050505050945083805461042890610a3c565b80601f016020809104026020016040519081016040528092919081815260200182805461045490610a3c565b80156104a15780601f10610476576101008083540402835291602001916104a1565b820191906000526020600020905b81548152906001019060200180831161048457829003601f168201915b505050505093508080546104b490610a3c565b80601f01602080910402602001604051908101604052809291908181526020018280546104e090610a3c565b801561052d5780601f106105025761010080835404028352916020019161052d565b820191906000526020600020905b81548152906001019060200180831161051057829003601f168201915b50505050509050975097509750975097509750975050919395979092949650565b6000604051905090565b600080fd5b600080fd5b600073ffffffffffffffffffffffffffffffffffffffff82169050919050565b600061058d82610562565b9050919050565b61059d81610582565b81146105a857600080fd5b50565b6000813590506105ba81610594565b92915050565b6000602082840312156105d6576105d5610558565b5b60006105e4848285016105ab565b91505092915050565b60008115159050919050565b610602816105ed565b82525050565b600060208201905061061d60008301846105f9565b92915050565b600080fd5b600080fd5b6000601f19601f8301169050919050565b7f4e487b7100000000000000000000000000000000000000000000000000000000600052604160045260246000fd5b6106768261062d565b810181811067ffffffffffffffff821117156106955761069461063e565b5b80604052505050565b60006106a861054e565b90506106b4828261066d565b919050565b600067ffffffffffffffff8211156106d4576106d361063e565b5b6106dd8261062d565b9050602081019050919050565b82818337600083830152505050565b600061070c610707846106b9565b61069e565b90508281526020810184848401111561072857610727610628565b5b6107338482856106ea565b509392505050565b600082601f8301126107505761074f610623565b5b81356107608482602086016106f9565b91505092915050565b6000819050919050565b61077c81610769565b811461078757600080fd5b50565b60008135905061079981610773565b92915050565b60008060008060008060c087890312156107bc576107bb610558565b5b60006107ca89828a016105ab565b965050602087013567ffffffffffffffff8111156107eb576107ea61055d565b5b6107f789828a0161073b565b955050604087013567ffffffffffffffff8111156108185761081761055d565b5b61082489828a0161073b565b945050606061083589828a0161078a565b935050608061084689828a0161078a565b92505060a087013567ffffffffffffffff8111156108675761086661055d565b5b61087389828a0161073b565b9150509295509295509295565b61088981610582565b82525050565b600081519050919050565b600082825260208201905092915050565b60005b838110156108c95780820151818401526020810190506108ae565b60008484015250505050565b60006108e08261088f565b6108ea818561089a565b93506108fa8185602086016108ab565b6109038161062d565b840191505092915050565b61091781610769565b82525050565b600060e082019050610932600083018a610880565b61093f60208301896105f9565b818103604083015261095181886108d5565b9050818103606083015261096581876108d5565b9050610974608083018661090e565b61098160a083018561090e565b81810360c083015261099381846108d5565b905098975050505050505050565b7f4b594320616c726561647920446f6e6520757365000000000000000000000000600082015250565b60006109d760148361089a565b91506109e2826109a1565b602082019050919050565b60006020820190508181036000830152610a06816109ca565b9050919050565b7f4e487b7100000000000000000000000000000000000000000000000000000000600052602260045260246000fd5b60006002820490506001821680610a5457607f821691505b602082108103610a6757610a66610a0d565b5b50919050565b60008190508160005260206000209050919050565b60006020601f8301049050919050565b600082821b905092915050565b600060088302610acf7fffffffffffffffffffffffffffffffffffffffffffffffffffffffffffffffff82610a92565b610ad98683610a92565b95508019841693508086168417925050509392505050565b6000819050919050565b6000610b16610b11610b0c84610769565b610af1565b610769565b9050919050565b6000819050919050565b610b3083610afb565b610b44610b3c82610b1d565b848454610a9f565b825550505050565b600090565b610b59610b4c565b610b64818484610b27565b505050565b5b81811015610b8857610b7d600082610b51565b600181019050610b6a565b5050565b601f821115610bcd57610b9e81610a6d565b610ba784610a82565b81016020851015610bb6578190505b610bca610bc285610a82565b830182610b69565b50505b505050565b600082821c905092915050565b6000610bf060001984600802610bd2565b1980831691505092915050565b6000610c098383610bdf565b9150826002028217905092915050565b610c228261088f565b67ffffffffffffffff811115610c3b57610c3a61063e565b5b610c458254610a3c565b610c50828285610b8c565b600060209050601f831160018114610c835760008415610c71578287015190505b610c7b8582610bfd565b865550610ce3565b601f198416610c9186610a6d565b60005b82811015610cb957848901518255600182019150602085019450602081019050610c94565b86831015610cd65784890151610cd2601f891682610bdf565b8355505b6001600288020188555050505b50505050505056fea26469706673582212201957efa6d3a8ee03ce1c8864c486b3c8ec9a5e9909be957bfa0edf488f9fe61d64736f6c63430008120033",
  "linkReferences": {},
  "deployedLinkReferences": {}
}